:020000040800F2
:1000000000500020AD010008F5010008F5010008CE
:10001000F5010008F5010008F501000800000000E6
:10002000000000000000000000000000F5010008D2
:10003000F501000800000000F5010008F5010008C6
:10004000F5010008F5010008F5010008F5010008B8
:10005000F5010008F5010008F5010008F5010008A8
:10006000F5010008F5010008F5010008F501000898
:10007000F5010008F5010008F5010008F501000888
:10008000F5010008F5010008F5010008F501000878
:10009000F5010008F5010008F5010008F501000868
:1000A000F5010008F5010008F5010008F501000858
:1000B000F5010008F5010008F5010008F501000848
:1000C000F5010008F5010008F5010008F501000838
:1000D000F5010008F5010008F5010008F501000828
:1000E000F5010008F5010008F50100080000000016
:1000F0000000000000000000000000000000000000
:0C01000000000000000000005FF808F1A3
:10010C000348044B834202D0034B03B1184770479A
:10011C000000002000000020000000000548064BF5
:10012C001B1AD90F01EBA301491002D0034B03B1E9
:10013C00184770470000002000000020000000005D
:10014C0010B5064C237843B9FFF7DAFF044B13B113
:10015C000448AFF300800123237010BD0000002081
:10016C00000000004002000808B5054B1BB1054912
:10017C000548AFF30080BDE80840FFF7CFBF00BFD4
:10018C0000000000040000204002000880B400AF12
:10019C0000BFFDE780B400AF00BFBD4680BC704718
:1001AC00FFF7F8FF0B480C490C4A002302E0D45827
:1001BC00C4500433C4188C42F9D3094A094C0023A7
:1001CC0001E013600432A242FBD300F00FF8FFF7FA
:1001DC00DDFF7047000000200000002060020008D6
:1001EC00000000201C000020FEE7000070B5002677
:1001FC000C4D0D4C641BA410A64209D100F01AF84A
:10020C0000260A4D0A4C641BA410A64205D170BDF1
:10021C0055F8043B98470136EEE755F8043B9847F0
:10022C000136F2E75802000858020008580200088C
:10023C005C020008F8B500BFF8BC08BC9E467047CD
:0C024C00F8B500BFF8BC08BC9E46704727
:040258007501000824
:04025C004D01000848
:04000005080001AD41
:00000001FF
